:10017500E4F508F50912022A0509E50970020508E2
:100185007FE87E031201FA750E10AB09AA087D01FE
:070195007F011201DD80E192
:06023E00C2A58F80D2A7CB
:080244007F027EEFDEFEDFFC0D
:01024C00228F
:0A025900C2A612023EC2A702024430
:1001BF00CFCDCFCECCCE1200427C007D0A120042B2
:0401CF00ED2430FFEC
:0A01D300D2A612023EC2A7020244A7
:10021400AE07BE0104ED148006BE0209ED243F447E
:0602240080FF12025922C6
:10022A007F381202597F0C1202597F061202597F37
:04023A000102025962
:0A026300AC03120214AF040201D331
:06019C008B248A25892650
:1001A200120214E4FDAB24AA25A9268D82758300D0
:0C01B200120003FF60061201D30D80E96B
:0101BE00221E
:0C0142007F0AEA24FFFDE434FFFC7E008D
:08014E008E0F8F108C118D1231
:100156007F017E00E4FBEBC39512E5116480F87421
:0E0166008098500AAC0FAD101200300B80E8EC
:010174002268
:0401DD008A0C8B0DF0
:1001E100120214AA0EEAD39400400D120142AC0C83
:0801F100AD0D1201BF1A80EDF3
:0101F90022E3
:10009700120214C3EA64809480400B7F2B1201D3B1
:1000A7008A188B19800E7F2D1201D3C3E49BF51993
:1000B700E49AF518AA17EAD39400400D120142AC4E
:0900C70018AD191201BF1A80EDF9
:0100D000220D
:0400D1008A1C8B1DDD
:1000D500120214AA1EEAD3940040297F101201448B
:1000E500AC1CAD1DCFCDCFCECCCE120042EF540F00
:1000F500FEC3940AEE5004243080022437FF120117
:04010500D31A80D1B8
:0101090022D3
:04010A008A218B2299
:10010E00120214AA23EAD394004028EA24FFFDE445
:10011E0034FFFC7F027E0012014EAC21AD22CFCD0A
:10012E00CFCECCCE120042EF54012430FF1201D3B9
:03013E001A80D252
:01014100229B
:08026D007F027EEFDEFEDFFCE4
:010275002266
:1001FA00AD07AC06D3ED9400EC64809480400A12FB
:0A020A00026DED1D70EE1C80EB226A
:0300000002024DAC
:0C024D00787FE4F6D8FD7581260201756B
:10000300BB010CE58229F582E5833AF583E02250B2
:1000130006E92582F8E622BBFE06E92582F8E222FC
:0D002300E58229F582E5833AF583E4932216
:10003000EF8DF0A4A8F0CF8CF0A428CE8DF0A42EE4
:02004000FE229E
:10004200BC000BBE0029EF8DF084FFADF022E4CCA2
:10005200F875F008EF2FFFEE33FEEC33FCEE9DEC6B
:10006200984005FCEE9DFE0FD5F0E9E4CEFD22EDB1
:10007200F8F5F0EE8420D21CFEADF075F008EF2FFB
:10008200FFED33FD4007985006D5F0F222C398FDEC
:050092000FD5F0EA2289
:00000001FF
