:080098007F027EEFDEFEDFFCBB
:0100A000223D
:04006E007F147E007D
:10007200AD07AC06D3ED9400EC64809480400A1284
:0A0082000098ED1D70EE1C80EB22CB
:100003007B017A0075A0FE20B12E12006E30B1FD87
:1000130012006E0BBB00010AD3EB9408EA648094D0
:100023008040047A007B01EB14FF7401A807088069
:1000330002C333D8FCF4F5A020B0CC12006E30B06C
:10004300FD12006EEB1B70011AC3EB9401EA64808E
:10005300948050047A007B08EB14FF7401A807080E
:0B0063008002C333D8FCF4F5A0809CA1
:0300000002008C6F
:0C008C00787FE4F6D8FD758107020003C0
:00000001FF
