:10017D003F065B4F666D7D077F6F777C395E7971CA
:0800F9008E088F098C0A8D0BA3
:10010100780C7C007D007BFF7A01797D7E007F1079
:100111001200D3E508705CE50914B408005054904E
:10012100012E75F003A4C58325F0C5837302014632
:1001310002014A02014E02015202015602015E020F
:10014100016602016ED2A4800ED2A48012D2A480D4
:1001510016D2A4801AC2A4D2A3D2A28016C2A4D25B
:10016100A3C2A2800EC2A4C2A3D2A28006C2A4C20C
:0B017100A3C2A2740C250BF8E6F58079
:01017C002260
:0D018D007D067C007F067E001200F980FEDA
:0300000002019A60
:0C019A00787FE4F6D8FD75811B02018D12
:10000300E709F608DFFA8046E709F208DFFA803EDF
:1000130088828C83E709F0A3DFFA8032E309F608CC
:10002300DFFA8078E309F208DFFA807088828C8334
:10003300E309F0A3DFFA806489828A83E0A3F608E8
:10004300DFFA805889828A83E0A3F208DFFA804CC2
:1000530080D280FA80C680D4806980F28033801099
:1000630080A680EA809A80A880DA80E280CA803302
:1000730089828A83ECFAE493A3C8C582C8CCC5837A
:10008300CCF0A3C8C582C8CCC583CCDFE9DEE7804A
:100093000D89828A83E493A3F608DFF9ECFAA9F0C9
:1000A300EDFB2289828A83ECFAE0A3C8C582C8CC1F
:1000B300C583CCF0A3C8C582C8CCC583CCDFEADE38
:1000C300E880DB89828A83E493A3F208DFF980CC9A
:1000D30088F0EF60010E4E60C388F0ED2402B40493
:1000E3000050B9F582EB2402B4040050AF2323453A
:0600F3008223900053730C
:00000001FF
