:10027C003F065B4F666D7D077F6F777C395E7971CA
:01028C000071
:080299007F027EEFDEFEDFFCB8
:0102A100223A
:10026200AD07AC06D3ED9400EC64809480400A1292
:0A0272000299ED1D70EE1C80EB22D6
:080184008E0C8F0D8C0E8D0F07
:10018C0078107C007D007BFF7A02797C7E007F11E9
:10019C001200D3E50C705CE50D14B40800505490BB
:1001AC0001B975F003A4C58325F0C583730201D191
:1001BC000201D50201D90201DD0201E10201E902CD
:1001CC0001F10201F9D2A4800ED2A48012D2A48033
:1001DC0016D2A4801AC2A4D2A3D2A28016C2A4D2D0
:1001EC00A3C2A2800EC2A4C2A3D2A28006C2A4C281
:0B01FC00A3C2A27410250FF8E6F580E6
:0102070022D4
:10020800E4F508F509F50AF50BE4F508F509AE0873
:10021800AF097C007D081200F9ED2401F50BE43CE0
:10022800F50AAD09AC08AF0BFE1201847FF47E011C
:100238001202627D107C00AF0BAE0A1201847F01AE
:100248007E001202620509E50970020508D3940FC1
:0A025800E5086480948040B680AF92
:0300000002028D6C
:0C028D00787FE4F6D8FD7581200202089D
:10000300E709F608DFFA8046E709F208DFFA803EDF
:1000130088828C83E709F0A3DFFA8032E309F608CC
:10002300DFFA8078E309F208DFFA807088828C8334
:10003300E309F0A3DFFA806489828A83E0A3F608E8
:10004300DFFA805889828A83E0A3F208DFFA804CC2
:1000530080D280FA80C680D4806980F28033801099
:1000630080A680EA809A80A880DA80E280CA803302
:1000730089828A83ECFAE493A3C8C582C8CCC5837A
:10008300CCF0A3C8C582C8CCC583CCDFE9DEE7804A
:100093000D89828A83E493A3F608DFF9ECFAA9F0C9
:1000A300EDFB2289828A83ECFAE0A3C8C582C8CC1F
:1000B300C583CCF0A3C8C582C8CCC583CCDFEADE38
:1000C300E880DB89828A83E493A3F208DFF980CC9A
:1000D30088F0EF60010E4E60C388F0ED2402B40493
:1000E3000050B9F582EB2402B4040050AF2323453A
:0600F3008223900053730C
:1000F900C2D5EC30E709B2D5E4C39DFDE49CFCEE22
:1001090030E715B2D5E4C39FFFE49EFE12012FC369
:10011900E49DFDE49CFC800312012F30D507C3E464
:060129009FFFE49EFE2290
:10012F00BC000BBE0029EF8DF084FFADF022E4CCB4
:10013F00F875F008EF2FFFEE33FEEC33FCEE9DEC7D
:10014F00984005FCEE9DFE0FD5F0E9E4CEFD22EDC3
:10015F00F8F5F0EE8420D21CFEADF075F008EF2F0D
:10016F00FFED33FD4007985006D5F0F222C398FDFE
:05017F000FD5F0EA229B
:00000001FF
